{
  "_format": "hh-sol-artifact-1",
  "contractName": "Mod3DItem",
  "sourceName": "contracts/Mod3DItem.sol",
  "abi": [
    {
      "inputs": [],
      "stateMutability": "nonpayable",
      "type": "constructor"
    },
    {
      "anonymous": false,
      "inputs": [
        {
          "indexed": true,
          "internalType": "address",
          "name": "owner",
          "type": "address"
        },
        {
          "indexed": true,
          "internalType": "address",
          "name": "approved",
          "type": "address"
        },
        {
          "indexed": true,
          "internalType": "uint256",
          "name": "tokenId",
          "type": "uint256"
        }
      ],
      "name": "Approval",
      "type": "event"
    },
    {
      "anonymous": false,
      "inputs": [
        {
          "indexed": true,
          "internalType": "address",
          "name": "owner",
          "type": "address"
        },
        {
          "indexed": true,
          "internalType": "address",
          "name": "operator",
          "type": "address"
        },
        {
          "indexed": false,
          "internalType": "bool",
          "name": "approved",
          "type": "bool"
        }
      ],
      "name": "ApprovalForAll",
      "type": "event"
    },
    {
      "anonymous": false,
      "inputs": [
        {
          "indexed": true,
          "internalType": "bytes32",
          "name": "role",
          "type": "bytes32"
        },
        {
          "indexed": true,
          "internalType": "bytes32",
          "name": "previousAdminRole",
          "type": "bytes32"
        },
        {
          "indexed": true,
          "internalType": "bytes32",
          "name": "newAdminRole",
          "type": "bytes32"
        }
      ],
      "name": "RoleAdminChanged",
      "type": "event"
    },
    {
      "anonymous": false,
      "inputs": [
        {
          "indexed": true,
          "internalType": "bytes32",
          "name": "role",
          "type": "bytes32"
        },
        {
          "indexed": true,
          "internalType": "address",
          "name": "account",
          "type": "address"
        },
        {
          "indexed": true,
          "internalType": "address",
          "name": "sender",
          "type": "address"
        }
      ],
      "name": "RoleGranted",
      "type": "event"
    },
    {
      "anonymous": false,
      "inputs": [
        {
          "indexed": true,
          "internalType": "bytes32",
          "name": "role",
          "type": "bytes32"
        },
        {
          "indexed": true,
          "internalType": "address",
          "name": "account",
          "type": "address"
        },
        {
          "indexed": true,
          "internalType": "address",
          "name": "sender",
          "type": "address"
        }
      ],
      "name": "RoleRevoked",
      "type": "event"
    },
    {
      "anonymous": false,
      "inputs": [
        {
          "indexed": true,
          "internalType": "address",
          "name": "from",
          "type": "address"
        },
        {
          "indexed": true,
          "internalType": "address",
          "name": "to",
          "type": "address"
        },
        {
          "indexed": true,
          "internalType": "uint256",
          "name": "tokenId",
          "type": "uint256"
        }
      ],
      "name": "Transfer",
      "type": "event"
    },
    {
      "inputs": [],
      "name": "DEFAULT_ADMIN_ROLE",
      "outputs": [
        {
          "internalType": "bytes32",
          "name": "",
          "type": "bytes32"
        }
      ],
      "stateMutability": "view",
      "type": "function"
    },
    {
      "inputs": [],
      "name": "MINTER_ROLE",
      "outputs": [
        {
          "internalType": "bytes32",
          "name": "",
          "type": "bytes32"
        }
      ],
      "stateMutability": "view",
      "type": "function"
    },
    {
      "inputs": [
        {
          "internalType": "address",
          "name": "to",
          "type": "address"
        },
        {
          "internalType": "uint256",
          "name": "tokenId",
          "type": "uint256"
        }
      ],
      "name": "approve",
      "outputs": [],
      "stateMutability": "nonpayable",
      "type": "function"
    },
    {
      "inputs": [
        {
          "internalType": "address",
          "name": "owner",
          "type": "address"
        }
      ],
      "name": "balanceOf",
      "outputs": [
        {
          "internalType": "uint256",
          "name": "",
          "type": "uint256"
        }
      ],
      "stateMutability": "view",
      "type": "function"
    },
    {
      "inputs": [
        {
          "internalType": "uint256",
          "name": "tokenId",
          "type": "uint256"
        }
      ],
      "name": "getApproved",
      "outputs": [
        {
          "internalType": "address",
          "name": "",
          "type": "address"
        }
      ],
      "stateMutability": "view",
      "type": "function"
    },
    {
      "inputs": [
        {
          "internalType": "bytes32",
          "name": "role",
          "type": "bytes32"
        }
      ],
      "name": "getRoleAdmin",
      "outputs": [
        {
          "internalType": "bytes32",
          "name": "",
          "type": "bytes32"
        }
      ],
      "stateMutability": "view",
      "type": "function"
    },
    {
      "inputs": [
        {
          "internalType": "bytes32",
          "name": "role",
          "type": "bytes32"
        },
        {
          "internalType": "address",
          "name": "account",
          "type": "address"
        }
      ],
      "name": "grantRole",
      "outputs": [],
      "stateMutability": "nonpayable",
      "type": "function"
    },
    {
      "inputs": [
        {
          "internalType": "bytes32",
          "name": "role",
          "type": "bytes32"
        },
        {
          "internalType": "address",
          "name": "account",
          "type": "address"
        }
      ],
      "name": "hasRole",
      "outputs": [
        {
          "internalType": "bool",
          "name": "",
          "type": "bool"
        }
      ],
      "stateMutability": "view",
      "type": "function"
    },
    {
      "inputs": [
        {
          "internalType": "address",
          "name": "owner",
          "type": "address"
        },
        {
          "internalType": "address",
          "name": "operator",
          "type": "address"
        }
      ],
      "name": "isApprovedForAll",
      "outputs": [
        {
          "internalType": "bool",
          "name": "",
          "type": "bool"
        }
      ],
      "stateMutability": "view",
      "type": "function"
    },
    {
      "inputs": [],
      "name": "name",
      "outputs": [
        {
          "internalType": "string",
          "name": "",
          "type": "string"
        }
      ],
      "stateMutability": "view",
      "type": "function"
    },
    {
      "inputs": [
        {
          "internalType": "uint256",
          "name": "tokenId",
          "type": "uint256"
        }
      ],
      "name": "ownerOf",
      "outputs": [
        {
          "internalType": "address",
          "name": "",
          "type": "address"
        }
      ],
      "stateMutability": "view",
      "type": "function"
    },
    {
      "inputs": [
        {
          "internalType": "bytes32",
          "name": "role",
          "type": "bytes32"
        },
        {
          "internalType": "address",
          "name": "account",
          "type": "address"
        }
      ],
      "name": "renounceRole",
      "outputs": [],
      "stateMutability": "nonpayable",
      "type": "function"
    },
    {
      "inputs": [
        {
          "internalType": "bytes32",
          "name": "role",
          "type": "bytes32"
        },
        {
          "internalType": "address",
          "name": "account",
          "type": "address"
        }
      ],
      "name": "revokeRole",
      "outputs": [],
      "stateMutability": "nonpayable",
      "type": "function"
    },
    {
      "inputs": [
        {
          "internalType": "address",
          "name": "to",
          "type": "address"
        },
        {
          "internalType": "uint256",
          "name": "tokenId",
          "type": "uint256"
        }
      ],
      "name": "safeMint",
      "outputs": [],
      "stateMutability": "nonpayable",
      "type": "function"
    },
    {
      "inputs": [
        {
          "internalType": "address",
          "name": "from",
          "type": "address"
        },
        {
          "internalType": "address",
          "name": "to",
          "type": "address"
        },
        {
          "internalType": "uint256",
          "name": "tokenId",
          "type": "uint256"
        }
      ],
      "name": "safeTransferFrom",
      "outputs": [],
      "stateMutability": "nonpayable",
      "type": "function"
    },
    {
      "inputs": [
        {
          "internalType": "address",
          "name": "from",
          "type": "address"
        },
        {
          "internalType": "address",
          "name": "to",
          "type": "address"
        },
        {
          "internalType": "uint256",
          "name": "tokenId",
          "type": "uint256"
        },
        {
          "internalType": "bytes",
          "name": "_data",
          "type": "bytes"
        }
      ],
      "name": "safeTransferFrom",
      "outputs": [],
      "stateMutability": "nonpayable",
      "type": "function"
    },
    {
      "inputs": [
        {
          "internalType": "address",
          "name": "operator",
          "type": "address"
        },
        {
          "internalType": "bool",
          "name": "approved",
          "type": "bool"
        }
      ],
      "name": "setApprovalForAll",
      "outputs": [],
      "stateMutability": "nonpayable",
      "type": "function"
    },
    {
      "inputs": [
        {
          "internalType": "bytes4",
          "name": "interfaceId",
          "type": "bytes4"
        }
      ],
      "name": "supportsInterface",
      "outputs": [
        {
          "internalType": "bool",
          "name": "",
          "type": "bool"
        }
      ],
      "stateMutability": "view",
      "type": "function"
    },
    {
      "inputs": [],
      "name": "symbol",
      "outputs": [
        {
          "internalType": "string",
          "name": "",
          "type": "string"
        }
      ],
      "stateMutability": "view",
      "type": "function"
    },
    {
      "inputs": [
        {
          "internalType": "uint256",
          "name": "index",
          "type": "uint256"
        }
      ],
      "name": "tokenByIndex",
      "outputs": [
        {
          "internalType": "uint256",
          "name": "",
          "type": "uint256"
        }
      ],
      "stateMutability": "view",
      "type": "function"
    },
    {
      "inputs": [
        {
          "internalType": "address",
          "name": "owner",
          "type": "address"
        },
        {
          "internalType": "uint256",
          "name": "index",
          "type": "uint256"
        }
      ],
      "name": "tokenOfOwnerByIndex",
      "outputs": [
        {
          "internalType": "uint256",
          "name": "",
          "type": "uint256"
        }
      ],
      "stateMutability": "view",
      "type": "function"
    },
    {
      "inputs": [
        {
          "internalType": "uint256",
          "name": "tokenId",
          "type": "uint256"
        }
      ],
      "name": "tokenURI",
      "outputs": [
        {
          "internalType": "string",
          "name": "",
          "type": "string"
        }
      ],
      "stateMutability": "view",
      "type": "function"
    },
    {
      "inputs": [],
      "name": "totalSupply",
      "outputs": [
        {
          "internalType": "uint256",
          "name": "",
          "type": "uint256"
        }
      ],
      "stateMutability": "view",
      "type": "function"
    },
    {
      "inputs": [
        {
          "internalType": "address",
          "name": "from",
          "type": "address"
        },
        {
          "internalType": "address",
          "name": "to",
          "type": "address"
        },
        {
          "internalType": "uint256",
          "name": "tokenId",
          "type": "uint256"
        }
      ],
      "name": "transferFrom",
      "outputs": [],
      "stateMutability": "nonpayable",
      "type": "function"
    }
  ],
  "bytecode": "0x60806040523480156200001157600080fd5b506040518060400160405280600681526020017f33444974656d00000000000000000000000000000000000000000000000000008152506040518060400160405280600281526020017f334400000000000000000000000000000000000000000000000000000000000081525081600090805190602001906200009692919062000264565b508060019080519060200190620000af92919062000264565b505050620000c76000801b33620000ff60201b60201c565b620000f97f9f2df0fed2c77648de5860a4cc508cd0818c85b8b8a1ab4ceeef8d981c8956a633620000ff60201b60201c565b62000379565b620001118282620001f160201b60201c565b620001ed576001600a600084815260200190815260200160002060000160008373ffffffffffffffffffffffffffffffffffffffff1673ffffffffffffffffffffffffffffffffffffffff16815260200190815260200160002060006101000a81548160ff021916908315150217905550620001926200025c60201b60201c565b73ffffffffffffffffffffffffffffffffffffffff168173ffffffffffffffffffffffffffffffffffffffff16837f2f8788117e7eff1d82e926ec794901d17c78024a50270940304540a733656f0d60405160405180910390a45b5050565b6000600a600084815260200190815260200160002060000160008373ffffffffffffffffffffffffffffffffffffffff1673ffffffffffffffffffffffffffffffffffffffff16815260200190815260200160002060009054906101000a900460ff16905092915050565b600033905090565b828054620002729062000314565b90600052602060002090601f016020900481019282620002965760008555620002e2565b82601f10620002b157805160ff1916838001178555620002e2565b82800160010185558215620002e2579182015b82811115620002e1578251825591602001919060010190620002c4565b5b509050620002f19190620002f5565b5090565b5b8082111562000310576000816000905550600101620002f6565b5090565b600060028204905060018216806200032d57607f821691505b602082108114156200034457620003436200034a565b5b50919050565b7f4e487b7100000000000000000000000000000000000000000000000000000000600052602260045260246000fd5b613bac80620003896000396000f3fe608060405234801561001057600080fd5b50600436106101585760003560e01c80636352211e116100c3578063a22cb4651161007c578063a22cb465146103fd578063b88d4fde14610419578063c87b56dd14610435578063d539139314610465578063d547741f14610483578063e985e9c51461049f57610158565b80636352211e1461031557806370a082311461034557806391d148541461037557806395d89b41146103a5578063a1448194146103c3578063a217fddf146103df57610158565b8063248a9ca311610115578063248a9ca3146102315780632f2ff15d146102615780632f745c591461027d57806336568abe146102ad57806342842e0e146102c95780634f6ccce7146102e557610158565b806301ffc9a71461015d57806306fdde031461018d578063081812fc146101ab578063095ea7b3146101db57806318160ddd146101f757806323b872dd14610215575b600080fd5b6101776004803603810190610172919061299b565b6104cf565b6040516101849190612e76565b60405180910390f35b6101956104e1565b6040516101a29190612eac565b60405180910390f35b6101c560048036038101906101c091906129ed565b610573565b6040516101d29190612e0f565b60405180910390f35b6101f560048036038101906101f091906128fa565b6105f8565b005b6101ff610710565b60405161020c919061310e565b60405180910390f35b61022f600480360381019061022a91906127f4565b61071d565b005b61024b60048036038101906102469190612936565b61077d565b6040516102589190612e91565b60405180910390f35b61027b6004803603810190610276919061295f565b61079d565b005b610297600480360381019061029291906128fa565b6107c6565b6040516102a4919061310e565b60405180910390f35b6102c760048036038101906102c2919061295f565b61086b565b005b6102e360048036038101906102de91906127f4565b6108ee565b005b6102ff60048036038101906102fa91906129ed565b61090e565b60405161030c919061310e565b60405180910390f35b61032f600480360381019061032a91906129ed565b6109a5565b60405161033c9190612e0f565b60405180910390f35b61035f600480360381019061035a919061278f565b610a57565b60405161036c919061310e565b60405180910390f35b61038f600480360381019061038a919061295f565b610b0f565b60405161039c9190612e76565b60405180910390f35b6103ad610b7a565b6040516103ba9190612eac565b60405180910390f35b6103dd60048036038101906103d891906128fa565b610c0c565b005b6103e7610c4d565b6040516103f49190612e91565b60405180910390f35b610417600480360381019061041291906128be565b610c54565b005b610433600480360381019061042e9190612843565b610c6a565b005b61044f600480360381019061044a91906129ed565b610ccc565b60405161045c9190612eac565b60405180910390f35b61046d610d73565b60405161047a9190612e91565b60405180910390f35b61049d6004803603810190610498919061295f565b610d97565b005b6104b960048036038101906104b491906127b8565b610dc0565b6040516104c69190612e76565b60405180910390f35b60006104da82610e54565b9050919050565b6060600080546104f0906133c1565b80601f016020809104026020016040519081016040528092919081815260200182805461051c906133c1565b80156105695780601f1061053e57610100808354040283529160200191610569565b820191906000526020600020905b81548152906001019060200180831161054c57829003601f168201915b5050505050905090565b600061057e82610ece565b6105bd576040517f08c379a00000000000000000000000000000000000000000000000000000000081526004016105b49061304e565b60405180910390fd5b6004600083815260200190815260200160002060009054906101000a900473ffffffffffffffffffffffffffffffffffffffff169050919050565b6000610603826109a5565b90508073ffffffffffffffffffffffffffffffffffffffff168373ffffffffffffffffffffffffffffffffffffffff161415610674576040517f08c379a000000000000000000000000000000000000000000000000000000000815260040161066b9061308e565b60405180910390fd5b8073ffffffffffffffffffffffffffffffffffffffff16610693610f3a565b73ffffffffffffffffffffffffffffffffffffffff1614806106c257506106c1816106bc610f3a565b610dc0565b5b610701576040517f08c379a00000000000000000000000000000000000000000000000000000000081526004016106f890612fce565b60405180910390fd5b61070b8383610f42565b505050565b6000600880549050905090565b61072e610728610f3a565b82610ffb565b61076d576040517f08c379a0000000000000000000000000000000000000000000000000000000008152600401610764906130ae565b60405180910390fd5b6107788383836110d9565b505050565b6000600a6000838152602001908152602001600020600101549050919050565b6107a68261077d565b6107b7816107b2610f3a565b611340565b6107c183836113dd565b505050565b60006107d183610a57565b8210610812576040517f08c379a000000000000000000000000000000000000000000000000000000000815260040161080990612eee565b60405180910390fd5b600660008473ffffffffffffffffffffffffffffffffffffffff1673ffffffffffffffffffffffffffffffffffffffff168152602001908152602001600020600083815260200190815260200160002054905092915050565b610873610f3a565b73ffffffffffffffffffffffffffffffffffffffff168173ffffffffffffffffffffffffffffffffffffffff16146108e0576040517f08c379a00000000000000000000000000000000000000000000000000000000081526004016108d7906130ee565b60405180910390fd5b6108ea82826114be565b5050565b61090983838360405180602001604052806000815250610c6a565b505050565b6000610918610710565b8210610959576040517f08c379a0000000000000000000000000000000000000000000000000000000008152600401610950906130ce565b60405180910390fd5b60088281548110610993577f4e487b7100000000000000000000000000000000000000000000000000000000600052603260045260246000fd5b90600052602060002001549050919050565b6000806002600084815260200190815260200160002060009054906101000a900473ffffffffffffffffffffffffffffffffffffffff169050600073ffffffffffffffffffffffffffffffffffffffff168173ffffffffffffffffffffffffffffffffffffffff161415610a4e576040517f08c379a0000000000000000000000000000000000000000000000000000000008152600401610a459061300e565b60405180910390fd5b80915050919050565b60008073ffffffffffffffffffffffffffffffffffffffff168273ffffffffffffffffffffffffffffffffffffffff161415610ac8576040517f08c379a0000000000000000000000000000000000000000000000000000000008152600401610abf90612fee565b60405180910390fd5b600360008373ffffffffffffffffffffffffffffffffffffffff1673ffffffffffffffffffffffffffffffffffffffff168152602001908152602001600020549050919050565b6000600a600084815260200190815260200160002060000160008373ffffffffffffffffffffffffffffffffffffffff1673ffffffffffffffffffffffffffffffffffffffff16815260200190815260200160002060009054906101000a900460ff16905092915050565b606060018054610b89906133c1565b80601f0160208091040260200160405190810160405280929190818152602001828054610bb5906133c1565b8015610c025780601f10610bd757610100808354040283529160200191610c02565b820191906000526020600020905b815481529060010190602001808311610be557829003601f168201915b5050505050905090565b7f9f2df0fed2c77648de5860a4cc508cd0818c85b8b8a1ab4ceeef8d981c8956a6610c3e81610c39610f3a565b611340565b610c4883836115a0565b505050565b6000801b81565b610c66610c5f610f3a565b83836115be565b5050565b610c7b610c75610f3a565b83610ffb565b610cba576040517f08c379a0000000000000000000000000000000000000000000000000000000008152600401610cb1906130ae565b60405180910390fd5b610cc68484848461172b565b50505050565b6060610cd782610ece565b610d16576040517f08c379a0000000000000000000000000000000000000000000000000000000008152600401610d0d9061306e565b60405180910390fd5b6000610d20611787565b90506000815111610d405760405180602001604052806000815250610d6b565b80610d4a846117a7565b604051602001610d5b929190612db1565b6040516020818303038152906040525b915050919050565b7f9f2df0fed2c77648de5860a4cc508cd0818c85b8b8a1ab4ceeef8d981c8956a681565b610da08261077d565b610db181610dac610f3a565b611340565b610dbb83836114be565b505050565b6000600560008473ffffffffffffffffffffffffffffffffffffffff1673ffffffffffffffffffffffffffffffffffffffff16815260200190815260200160002060008373ffffffffffffffffffffffffffffffffffffffff1673ffffffffffffffffffffffffffffffffffffffff16815260200190815260200160002060009054906101000a900460ff16905092915050565b60007f7965db0b000000000000000000000000000000000000000000000000000000007bffffffffffffffffffffffffffffffffffffffffffffffffffffffff1916827bffffffffffffffffffffffffffffffffffffffffffffffffffffffff19161480610ec75750610ec682611954565b5b9050919050565b60008073ffffffffffffffffffffffffffffffffffffffff166002600084815260200190815260200160002060009054906101000a900473ffffffffffffffffffffffffffffffffffffffff1673ffffffffffffffffffffffffffffffffffffffff1614159050919050565b600033905090565b816004600083815260200190815260200160002060006101000a81548173ffffffffffffffffffffffffffffffffffffffff021916908373ffffffffffffffffffffffffffffffffffffffff160217905550808273ffffffffffffffffffffffffffffffffffffffff16610fb5836109a5565b73ffffffffffffffffffffffffffffffffffffffff167f8c5be1e5ebec7d5bd14f71427d1e84f3dd0314c0f7b2291e5b200ac8c7c3b92560405160405180910390a45050565b600061100682610ece565b611045576040517f08c379a000000000000000000000000000000000000000000000000000000000815260040161103c90612fae565b60405180910390fd5b6000611050836109a5565b90508073ffffffffffffffffffffffffffffffffffffffff168473ffffffffffffffffffffffffffffffffffffffff1614806110bf57508373ffffffffffffffffffffffffffffffffffffffff166110a784610573565b73ffffffffffffffffffffffffffffffffffffffff16145b806110d057506110cf8185610dc0565b5b91505092915050565b8273ffffffffffffffffffffffffffffffffffffffff166110f9826109a5565b73ffffffffffffffffffffffffffffffffffffffff161461114f576040517f08c379a000000000000000000000000000000000000000000000000000000000815260040161114690612f2e565b60405180910390fd5b600073ffffffffffffffffffffffffffffffffffffffff168273ffffffffffffffffffffffffffffffffffffffff1614156111bf576040517f08c379a00000000000000000000000000000000000000000000000000000000081526004016111b690612f6e565b60405180910390fd5b6111ca8383836119ce565b6111d5600082610f42565b6001600360008573ffffffffffffffffffffffffffffffffffffffff1673ffffffffffffffffffffffffffffffffffffffff168152602001908152602001600020600082825461122591906132a3565b925050819055506001600360008473ffffffffffffffffffffffffffffffffffffffff1673ffffffffffffffffffffffffffffffffffffffff168152602001908152602001600020600082825461127c91906131c2565b92505081905550816002600083815260200190815260200160002060006101000a81548173ffffffffffffffffffffffffffffffffffffffff021916908373ffffffffffffffffffffffffffffffffffffffff160217905550808273ffffffffffffffffffffffffffffffffffffffff168473ffffffffffffffffffffffffffffffffffffffff167fddf252ad1be2c89b69c2b068fc378daa952ba7f163c4a11628f55a4df523b3ef60405160405180910390a461133b8383836119de565b505050565b61134a8282610b0f565b6113d95761136f8173ffffffffffffffffffffffffffffffffffffffff1660146119e3565b61137d8360001c60206119e3565b60405160200161138e929190612dd5565b6040516020818303038152906040526040517f08c379a00000000000000000000000000000000000000000000000000000000081526004016113d09190612eac565b60405180910390fd5b5050565b6113e78282610b0f565b6114ba576001600a600084815260200190815260200160002060000160008373ffffffffffffffffffffffffffffffffffffffff1673ffffffffffffffffffffffffffffffffffffffff16815260200190815260200160002060006101000a81548160ff02191690831515021790555061145f610f3a565b73ffffffffffffffffffffffffffffffffffffffff168173ffffffffffffffffffffffffffffffffffffffff16837f2f8788117e7eff1d82e926ec794901d17c78024a50270940304540a733656f0d60405160405180910390a45b5050565b6114c88282610b0f565b1561159c576000600a600084815260200190815260200160002060000160008373ffffffffffffffffffffffffffffffffffffffff1673ffffffffffffffffffffffffffffffffffffffff16815260200190815260200160002060006101000a81548160ff021916908315150217905550611541610f3a565b73ffffffffffffffffffffffffffffffffffffffff168173ffffffffffffffffffffffffffffffffffffffff16837ff6391f5c32d9c69d2a47ea670b442974b53935d1edc7fd64eb21e047a839171b60405160405180910390a45b5050565b6115ba828260405180602001604052806000815250611cdd565b5050565b8173ffffffffffffffffffffffffffffffffffffffff168373ffffffffffffffffffffffffffffffffffffffff16141561162d576040517f08c379a000000000000000000000000000000000000000000000000000000000815260040161162490612f8e565b60405180910390fd5b80600560008573ffffffffffffffffffffffffffffffffffffffff1673ffffffffffffffffffffffffffffffffffffffff16815260200190815260200160002060008473ffffffffffffffffffffffffffffffffffffffff1673ffffffffffffffffffffffffffffffffffffffff16815260200190815260200160002060006101000a81548160ff0219169083151502179055508173ffffffffffffffffffffffffffffffffffffffff168373ffffffffffffffffffffffffffffffffffffffff167f17307eab39ab6107e8899845ad3d59bd9653f200f220920489ca2b5937696c318360405161171e9190612e76565b60405180910390a3505050565b6117368484846110d9565b61174284848484611d38565b611781576040517f08c379a000000000000000000000000000000000000000000000000000000000815260040161177890612f0e565b60405180910390fd5b50505050565b6060604051806080016040528060508152602001613b2760509139905090565b606060008214156117ef576040518060400160405280600181526020017f3000000000000000000000000000000000000000000000000000000000000000815250905061194f565b600082905060005b6000821461182157808061180a90613424565b915050600a8261181a9190613218565b91506117f7565b60008167ffffffffffffffff811115611863577f4e487b7100000000000000000000000000000000000000000000000000000000600052604160045260246000fd5b6040519080825280601f01601f1916602001820160405280156118955781602001600182028036833780820191505090505b5090505b60008514611948576001826118ae91906132a3565b9150600a856118bd919061346d565b60306118c991906131c2565b60f81b818381518110611905577f4e487b7100000000000000000000000000000000000000000000000000000000600052603260045260246000fd5b60200101907effffffffffffffffffffffffffffffffffffffffffffffffffffffffffffff1916908160001a905350600a856119419190613218565b9450611899565b8093505050505b919050565b60007f780e9d63000000000000000000000000000000000000000000000000000000007bffffffffffffffffffffffffffffffffffffffffffffffffffffffff1916827bffffffffffffffffffffffffffffffffffffffffffffffffffffffff191614806119c757506119c682611ecf565b5b9050919050565b6119d9838383611fb1565b505050565b505050565b6060600060028360026119f69190613249565b611a0091906131c2565b67ffffffffffffffff811115611a3f577f4e487b7100000000000000000000000000000000000000000000000000000000600052604160045260246000fd5b6040519080825280601f01601f191660200182016040528015611a715781602001600182028036833780820191505090505b5090507f300000000000000000000000000000000000000000000000000000000000000081600081518110611acf577f4e487b7100000000000000000000000000000000000000000000000000000000600052603260045260246000fd5b60200101907effffffffffffffffffffffffffffffffffffffffffffffffffffffffffffff1916908160001a9053507f780000000000000000000000000000000000000000000000000000000000000081600181518110611b59577f4e487b7100000000000000000000000000000000000000000000000000000000600052603260045260246000fd5b60200101907effffffffffffffffffffffffffffffffffffffffffffffffffffffffffffff1916908160001a90535060006001846002611b999190613249565b611ba391906131c2565b90505b6001811115611c8f577f3031323334353637383961626364656600000000000000000000000000000000600f861660108110611c0b577f4e487b7100000000000000000000000000000000000000000000000000000000600052603260045260246000fd5b1a60f81b828281518110611c48577f4e487b7100000000000000000000000000000000000000000000000000000000600052603260045260246000fd5b60200101907effffffffffffffffffffffffffffffffffffffffffffffffffffffffffffff1916908160001a905350600485901c945080611c8890613397565b9050611ba6565b5060008414611cd3576040517f08c379a0000000000000000000000000000000000000000000000000000000008152600401611cca90612ece565b60405180910390fd5b8091505092915050565b611ce783836120c5565b611cf46000848484611d38565b611d33576040517f08c379a0000000000000000000000000000000000000000000000000000000008152600401611d2a90612f0e565b60405180910390fd5b505050565b6000611d598473ffffffffffffffffffffffffffffffffffffffff1661229f565b15611ec2578373ffffffffffffffffffffffffffffffffffffffff1663150b7a02611d82610f3a565b8786866040518563ffffffff1660e01b8152600401611da49493929190612e2a565b602060405180830381600087803b158015611dbe57600080fd5b505af1925050508015611def57506040513d601f19601f82011682018060405250810190611dec91906129c4565b60015b611e72573d8060008114611e1f576040519150601f19603f3d011682016040523d82523d6000602084013e611e24565b606091505b50600081511415611e6a576040517f08c379a0000000000000000000000000000000000000000000000000000000008152600401611e6190612f0e565b60405180910390fd5b805181602001fd5b63150b7a0260e01b7bffffffffffffffffffffffffffffffffffffffffffffffffffffffff1916817bffffffffffffffffffffffffffffffffffffffffffffffffffffffff191614915050611ec7565b600190505b949350505050565b60007f80ac58cd000000000000000000000000000000000000000000000000000000007bffffffffffffffffffffffffffffffffffffffffffffffffffffffff1916827bffffffffffffffffffffffffffffffffffffffffffffffffffffffff19161480611f9a57507f5b5e139f000000000000000000000000000000000000000000000000000000007bffffffffffffffffffffffffffffffffffffffffffffffffffffffff1916827bffffffffffffffffffffffffffffffffffffffffffffffffffffffff1916145b80611faa5750611fa9826122c2565b5b9050919050565b611fbc83838361232c565b600073ffffffffffffffffffffffffffffffffffffffff168373ffffffffffffffffffffffffffffffffffffffff161415611fff57611ffa81612331565b61203e565b8173ffffffffffffffffffffffffffffffffffffffff168373ffffffffffffffffffffffffffffffffffffffff161461203d5761203c838261237a565b5b5b600073ffffffffffffffffffffffffffffffffffffffff168273ffffffffffffffffffffffffffffffffffffffff1614156120815761207c816124e7565b6120c0565b8273ffffffffffffffffffffffffffffffffffffffff168273ffffffffffffffffffffffffffffffffffffffff16146120bf576120be828261262a565b5b5b505050565b600073ffffffffffffffffffffffffffffffffffffffff168273ffffffffffffffffffffffffffffffffffffffff161415612135576040517f08c379a000000000000000000000000000000000000000000000000000000000815260040161212c9061302e565b60405180910390fd5b61213e81610ece565b1561217e576040517f08c379a000000000000000000000000000000000000000000000000000000000815260040161217590612f4e565b60405180910390fd5b61218a600083836119ce565b6001600360008473ffffffffffffffffffffffffffffffffffffffff1673ffffffffffffffffffffffffffffffffffffffff16815260200190815260200160002060008282546121da91906131c2565b92505081905550816002600083815260200190815260200160002060006101000a81548173ffffffffffffffffffffffffffffffffffffffff021916908373ffffffffffffffffffffffffffffffffffffffff160217905550808273ffffffffffffffffffffffffffffffffffffffff16600073ffffffffffffffffffffffffffffffffffffffff167fddf252ad1be2c89b69c2b068fc378daa952ba7f163c4a11628f55a4df523b3ef60405160405180910390a461229b600083836119de565b5050565b6000808273ffffffffffffffffffffffffffffffffffffffff163b119050919050565b60007f01ffc9a7000000000000000000000000000000000000000000000000000000007bffffffffffffffffffffffffffffffffffffffffffffffffffffffff1916827bffffffffffffffffffffffffffffffffffffffffffffffffffffffff1916149050919050565b505050565b6008805490506009600083815260200190815260200160002081905550600881908060018154018082558091505060019003906000526020600020016000909190919091505550565b6000600161238784610a57565b61239191906132a3565b9050600060076000848152602001908152602001600020549050818114612476576000600660008673ffffffffffffffffffffffffffffffffffffffff1673ffffffffffffffffffffffffffffffffffffffff168152602001908152602001600020600084815260200190815260200160002054905080600660008773ffffffffffffffffffffffffffffffffffffffff1673ffffffffffffffffffffffffffffffffffffffff168152602001908152602001600020600084815260200190815260200160002081905550816007600083815260200190815260200160002081905550505b6007600084815260200190815260200160002060009055600660008573ffffffffffffffffffffffffffffffffffffffff1673ffffffffffffffffffffffffffffffffffffffff16815260200190815260200160002060008381526020019081526020016000206000905550505050565b600060016008805490506124fb91906132a3565b9050600060096000848152602001908152602001600020549050600060088381548110612551577f4e487b7100000000000000000000000000000000000000000000000000000000600052603260045260246000fd5b906000526020600020015490508060088381548110612599577f4e487b7100000000000000000000000000000000000000000000000000000000600052603260045260246000fd5b90600052602060002001819055508160096000838152602001908152602001600020819055506009600085815260200190815260200160002060009055600880548061260e577f4e487b7100000000000000000000000000000000000000000000000000000000600052603160045260246000fd5b6001900381819060005260206000200160009055905550505050565b600061263583610a57565b905081600660008573ffffffffffffffffffffffffffffffffffffffff1673ffffffffffffffffffffffffffffffffffffffff168152602001908152602001600020600083815260200190815260200160002081905550806007600084815260200190815260200160002081905550505050565b60006126bc6126b78461314e565b613129565b9050828152602081018484840111156126d457600080fd5b6126df848285613355565b509392505050565b6000813590506126f681613ab3565b92915050565b60008135905061270b81613aca565b92915050565b60008135905061272081613ae1565b92915050565b60008135905061273581613af8565b92915050565b60008151905061274a81613af8565b92915050565b600082601f83011261276157600080fd5b81356127718482602086016126a9565b91505092915050565b60008135905061278981613b0f565b92915050565b6000602082840312156127a157600080fd5b60006127af848285016126e7565b91505092915050565b600080604083850312156127cb57600080fd5b60006127d9858286016126e7565b92505060206127ea858286016126e7565b9150509250929050565b60008060006060848603121561280957600080fd5b6000612817868287016126e7565b9350506020612828868287016126e7565b92505060406128398682870161277a565b9150509250925092565b6000806000806080858703121561285957600080fd5b6000612867878288016126e7565b9450506020612878878288016126e7565b93505060406128898782880161277a565b925050606085013567ffffffffffffffff8111156128a657600080fd5b6128b287828801612750565b91505092959194509250565b600080604083850312156128d157600080fd5b60006128df858286016126e7565b92505060206128f0858286016126fc565b9150509250929050565b6000806040838503121561290d57600080fd5b600061291b858286016126e7565b925050602061292c8582860161277a565b9150509250929050565b60006020828403121561294857600080fd5b600061295684828501612711565b91505092915050565b6000806040838503121561297257600080fd5b600061298085828601612711565b9250506020612991858286016126e7565b9150509250929050565b6000602082840312156129ad57600080fd5b60006129bb84828501612726565b91505092915050565b6000602082840312156129d657600080fd5b60006129e48482850161273b565b91505092915050565b6000602082840312156129ff57600080fd5b6000612a0d8482850161277a565b91505092915050565b612a1f816132d7565b82525050565b612a2e816132e9565b82525050565b612a3d816132f5565b82525050565b6000612a4e8261317f565b612a588185613195565b9350612a68818560208601613364565b612a718161355a565b840191505092915050565b6000612a878261318a565b612a9181856131a6565b9350612aa1818560208601613364565b612aaa8161355a565b840191505092915050565b6000612ac08261318a565b612aca81856131b7565b9350612ada818560208601613364565b80840191505092915050565b6000612af36020836131a6565b9150612afe8261356b565b602082019050919050565b6000612b16602b836131a6565b9150612b2182613594565b604082019050919050565b6000612b396032836131a6565b9150612b44826135e3565b604082019050919050565b6000612b5c6025836131a6565b9150612b6782613632565b604082019050919050565b6000612b7f601c836131a6565b9150612b8a82613681565b602082019050919050565b6000612ba26024836131a6565b9150612bad826136aa565b604082019050919050565b6000612bc56019836131a6565b9150612bd0826136f9565b602082019050919050565b6000612be8602c836131a6565b9150612bf382613722565b604082019050919050565b6000612c0b6038836131a6565b9150612c1682613771565b604082019050919050565b6000612c2e602a836131a6565b9150612c39826137c0565b604082019050919050565b6000612c516029836131a6565b9150612c5c8261380f565b604082019050919050565b6000612c746020836131a6565b9150612c7f8261385e565b602082019050919050565b6000612c97602c836131a6565b9150612ca282613887565b604082019050919050565b6000612cba602f836131a6565b9150612cc5826138d6565b604082019050919050565b6000612cdd6021836131a6565b9150612ce882613925565b604082019050919050565b6000612d006031836131a6565b9150612d0b82613974565b604082019050919050565b6000612d23602c836131a6565b9150612d2e826139c3565b604082019050919050565b6000612d466017836131b7565b9150612d5182613a12565b601782019050919050565b6000612d696011836131b7565b9150612d7482613a3b565b601182019050919050565b6000612d8c602f836131a6565b9150612d9782613a64565b604082019050919050565b612dab8161334b565b82525050565b6000612dbd8285612ab5565b9150612dc98284612ab5565b91508190509392505050565b6000612de082612d39565b9150612dec8285612ab5565b9150612df782612d5c565b9150612e038284612ab5565b91508190509392505050565b6000602082019050612e246000830184612a16565b92915050565b6000608082019050612e3f6000830187612a16565b612e4c6020830186612a16565b612e596040830185612da2565b8181036060830152612e6b8184612a43565b905095945050505050565b6000602082019050612e8b6000830184612a25565b92915050565b6000602082019050612ea66000830184612a34565b92915050565b60006020820190508181036000830152612ec68184612a7c565b905092915050565b60006020820190508181036000830152612ee781612ae6565b9050919050565b60006020820190508181036000830152612f0781612b09565b9050919050565b60006020820190508181036000830152612f2781612b2c565b9050919050565b60006020820190508181036000830152612f4781612b4f565b9050919050565b60006020820190508181036000830152612f6781612b72565b9050919050565b60006020820190508181036000830152612f8781612b95565b9050919050565b60006020820190508181036000830152612fa781612bb8565b9050919050565b60006020820190508181036000830152612fc781612bdb565b9050919050565b60006020820190508181036000830152612fe781612bfe565b9050919050565b6000602082019050818103600083015261300781612c21565b9050919050565b6000602082019050818103600083015261302781612c44565b9050919050565b6000602082019050818103600083015261304781612c67565b9050919050565b6000602082019050818103600083015261306781612c8a565b9050919050565b6000602082019050818103600083015261308781612cad565b9050919050565b600060208201905081810360008301526130a781612cd0565b9050919050565b600060208201905081810360008301526130c781612cf3565b9050919050565b600060208201905081810360008301526130e781612d16565b9050919050565b6000602082019050818103600083015261310781612d7f565b9050919050565b60006020820190506131236000830184612da2565b92915050565b6000613133613144565b905061313f82826133f3565b919050565b6000604051905090565b600067ffffffffffffffff8211156131695761316861352b565b5b6131728261355a565b9050602081019050919050565b600081519050919050565b600081519050919050565b600082825260208201905092915050565b600082825260208201905092915050565b600081905092915050565b60006131cd8261334b565b91506131d88361334b565b9250827fffffffffffffffffffffffffffffffffffffffffffffffffffffffffffffffff0382111561320d5761320c61349e565b5b828201905092915050565b60006132238261334b565b915061322e8361334b565b92508261323e5761323d6134cd565b5b828204905092915050565b60006132548261334b565b915061325f8361334b565b9250817fffffffffffffffffffffffffffffffffffffffffffffffffffffffffffffffff04831182151516156132985761329761349e565b5b828202905092915050565b60006132ae8261334b565b91506132b98361334b565b9250828210156132cc576132cb61349e565b5b828203905092915050565b60006132e28261332b565b9050919050565b60008115159050919050565b6000819050919050565b60007fffffffff0000000000000000000000000000000000000000000000000000000082169050919050565b600073ffffffffffffffffffffffffffffffffffffffff82169050919050565b6000819050919050565b82818337600083830152505050565b60005b83811015613382578082015181840152602081019050613367565b83811115613391576000848401525b50505050565b60006133a28261334b565b915060008214156133b6576133b561349e565b5b600182039050919050565b600060028204905060018216806133d957607f821691505b602082108114156133ed576133ec6134fc565b5b50919050565b6133fc8261355a565b810181811067ffffffffffffffff8211171561341b5761341a61352b565b5b80604052505050565b600061342f8261334b565b91507fffffffffffffffffffffffffffffffffffffffffffffffffffffffffffffffff8214156134625761346161349e565b5b600182019050919050565b60006134788261334b565b91506134838361334b565b925082613493576134926134cd565b5b828206905092915050565b7f4e487b7100000000000000000000000000000000000000000000000000000000600052601160045260246000fd5b7f4e487b7100000000000000000000000000000000000000000000000000000000600052601260045260246000fd5b7f4e487b7100000000000000000000000000000000000000000000000000000000600052602260045260246000fd5b7f4e487b7100000000000000000000000000000000000000000000000000000000600052604160045260246000fd5b6000601f19601f8301169050919050565b7f537472696e67733a20686578206c656e67746820696e73756666696369656e74600082015250565b7f455243373231456e756d657261626c653a206f776e657220696e646578206f7560008201527f74206f6620626f756e6473000000000000000000000000000000000000000000602082015250565b7f4552433732313a207472616e7366657220746f206e6f6e20455243373231526560008201527f63656976657220696d706c656d656e7465720000000000000000000000000000602082015250565b7f4552433732313a207472616e736665722066726f6d20696e636f72726563742060008201527f6f776e6572000000000000000000000000000000000000000000000000000000602082015250565b7f4552433732313a20746f6b656e20616c7265616479206d696e74656400000000600082015250565b7f4552433732313a207472616e7366657220746f20746865207a65726f2061646460008201527f7265737300000000000000000000000000000000000000000000000000000000602082015250565b7f4552433732313a20617070726f766520746f2063616c6c657200000000000000600082015250565b7f4552433732313a206f70657261746f7220717565727920666f72206e6f6e657860008201527f697374656e7420746f6b656e0000000000000000000000000000000000000000602082015250565b7f4552433732313a20617070726f76652063616c6c6572206973206e6f74206f7760008201527f6e6572206e6f7220617070726f76656420666f7220616c6c0000000000000000602082015250565b7f4552433732313a2062616c616e636520717565727920666f7220746865207a6560008201527f726f206164647265737300000000000000000000000000000000000000000000602082015250565b7f4552433732313a206f776e657220717565727920666f72206e6f6e657869737460008201527f656e7420746f6b656e0000000000000000000000000000000000000000000000602082015250565b7f4552433732313a206d696e7420746f20746865207a65726f2061646472657373600082015250565b7f4552433732313a20617070726f76656420717565727920666f72206e6f6e657860008201527f697374656e7420746f6b656e0000000000000000000000000000000000000000602082015250565b7f4552433732314d657461646174613a2055524920717565727920666f72206e6f60008201527f6e6578697374656e7420746f6b656e0000000000000000000000000000000000602082015250565b7f4552433732313a20617070726f76616c20746f2063757272656e74206f776e6560008201527f7200000000000000000000000000000000000000000000000000000000000000602082015250565b7f4552433732313a207472616e736665722063616c6c6572206973206e6f74206f60008201527f776e6572206e6f7220617070726f766564000000000000000000000000000000602082015250565b7f455243373231456e756d657261626c653a20676c6f62616c20696e646578206f60008201527f7574206f6620626f756e64730000000000000000000000000000000000000000602082015250565b7f416363657373436f6e74726f6c3a206163636f756e7420000000000000000000600082015250565b7f206973206d697373696e6720726f6c6520000000000000000000000000000000600082015250565b7f416363657373436f6e74726f6c3a2063616e206f6e6c792072656e6f756e636560008201527f20726f6c657320666f722073656c660000000000000000000000000000000000602082015250565b613abc816132d7565b8114613ac757600080fd5b50565b613ad3816132e9565b8114613ade57600080fd5b50565b613aea816132f5565b8114613af557600080fd5b50565b613b01816132ff565b8114613b0c57600080fd5b50565b613b188161334b565b8114613b2357600080fd5b5056fe68747470733a2f2f7261772e67697468756275736572636f6e74656e742e636f6d2f6d696e746f6e64656d616e642f64657369676e2d636c75622d626574612f6d61696e2f6a736f6e2d66696c65732fa2646970667358221220e510731f395c2ef42fdbf07eec329428c0a39dbd56824f814f58c0b7864838a964736f6c63430008040033",
  "linkReferences": {},
  "deployedLinkReferences": {}
}