{
  "_format": "hh-sol-artifact-1",
  "contractName": "Mod3DItem",
  "sourceName": "contracts/Mod3DItem.sol",
  "abi": [
    {
      "inputs": [],
      "stateMutability": "nonpayable",
      "type": "constructor"
    },
    {
      "anonymous": false,
      "inputs": [
        {
          "indexed": true,
          "internalType": "address",
          "name": "owner",
          "type": "address"
        },
        {
          "indexed": true,
          "internalType": "address",
          "name": "approved",
          "type": "address"
        },
        {
          "indexed": true,
          "internalType": "uint256",
          "name": "tokenId",
          "type": "uint256"
        }
      ],
      "name": "Approval",
      "type": "event"
    },
    {
      "anonymous": false,
      "inputs": [
        {
          "indexed": true,
          "internalType": "address",
          "name": "owner",
          "type": "address"
        },
        {
          "indexed": true,
          "internalType": "address",
          "name": "operator",
          "type": "address"
        },
        {
          "indexed": false,
          "internalType": "bool",
          "name": "approved",
          "type": "bool"
        }
      ],
      "name": "ApprovalForAll",
      "type": "event"
    },
    {
      "anonymous": false,
      "inputs": [
        {
          "indexed": true,
          "internalType": "bytes32",
          "name": "role",
          "type": "bytes32"
        },
        {
          "indexed": true,
          "internalType": "bytes32",
          "name": "previousAdminRole",
          "type": "bytes32"
        },
        {
          "indexed": true,
          "internalType": "bytes32",
          "name": "newAdminRole",
          "type": "bytes32"
        }
      ],
      "name": "RoleAdminChanged",
      "type": "event"
    },
    {
      "anonymous": false,
      "inputs": [
        {
          "indexed": true,
          "internalType": "bytes32",
          "name": "role",
          "type": "bytes32"
        },
        {
          "indexed": true,
          "internalType": "address",
          "name": "account",
          "type": "address"
        },
        {
          "indexed": true,
          "internalType": "address",
          "name": "sender",
          "type": "address"
        }
      ],
      "name": "RoleGranted",
      "type": "event"
    },
    {
      "anonymous": false,
      "inputs": [
        {
          "indexed": true,
          "internalType": "bytes32",
          "name": "role",
          "type": "bytes32"
        },
        {
          "indexed": true,
          "internalType": "address",
          "name": "account",
          "type": "address"
        },
        {
          "indexed": true,
          "internalType": "address",
          "name": "sender",
          "type": "address"
        }
      ],
      "name": "RoleRevoked",
      "type": "event"
    },
    {
      "anonymous": false,
      "inputs": [
        {
          "indexed": true,
          "internalType": "address",
          "name": "from",
          "type": "address"
        },
        {
          "indexed": true,
          "internalType": "address",
          "name": "to",
          "type": "address"
        },
        {
          "indexed": true,
          "internalType": "uint256",
          "name": "tokenId",
          "type": "uint256"
        }
      ],
      "name": "Transfer",
      "type": "event"
    },
    {
      "inputs": [],
      "name": "DEFAULT_ADMIN_ROLE",
      "outputs": [
        {
          "internalType": "bytes32",
          "name": "",
          "type": "bytes32"
        }
      ],
      "stateMutability": "view",
      "type": "function"
    },
    {
      "inputs": [],
      "name": "MINTER_ROLE",
      "outputs": [
        {
          "internalType": "bytes32",
          "name": "",
          "type": "bytes32"
        }
      ],
      "stateMutability": "view",
      "type": "function"
    },
    {
      "inputs": [
        {
          "internalType": "address",
          "name": "to",
          "type": "address"
        },
        {
          "internalType": "uint256",
          "name": "tokenId",
          "type": "uint256"
        }
      ],
      "name": "approve",
      "outputs": [],
      "stateMutability": "nonpayable",
      "type": "function"
    },
    {
      "inputs": [
        {
          "internalType": "address",
          "name": "owner",
          "type": "address"
        }
      ],
      "name": "balanceOf",
      "outputs": [
        {
          "internalType": "uint256",
          "name": "",
          "type": "uint256"
        }
      ],
      "stateMutability": "view",
      "type": "function"
    },
    {
      "inputs": [
        {
          "internalType": "uint256",
          "name": "tokenId",
          "type": "uint256"
        }
      ],
      "name": "getApproved",
      "outputs": [
        {
          "internalType": "address",
          "name": "",
          "type": "address"
        }
      ],
      "stateMutability": "view",
      "type": "function"
    },
    {
      "inputs": [
        {
          "internalType": "bytes32",
          "name": "role",
          "type": "bytes32"
        }
      ],
      "name": "getRoleAdmin",
      "outputs": [
        {
          "internalType": "bytes32",
          "name": "",
          "type": "bytes32"
        }
      ],
      "stateMutability": "view",
      "type": "function"
    },
    {
      "inputs": [
        {
          "internalType": "bytes32",
          "name": "role",
          "type": "bytes32"
        },
        {
          "internalType": "address",
          "name": "account",
          "type": "address"
        }
      ],
      "name": "grantRole",
      "outputs": [],
      "stateMutability": "nonpayable",
      "type": "function"
    },
    {
      "inputs": [
        {
          "internalType": "bytes32",
          "name": "role",
          "type": "bytes32"
        },
        {
          "internalType": "address",
          "name": "account",
          "type": "address"
        }
      ],
      "name": "hasRole",
      "outputs": [
        {
          "internalType": "bool",
          "name": "",
          "type": "bool"
        }
      ],
      "stateMutability": "view",
      "type": "function"
    },
    {
      "inputs": [
        {
          "internalType": "address",
          "name": "owner",
          "type": "address"
        },
        {
          "internalType": "address",
          "name": "operator",
          "type": "address"
        }
      ],
      "name": "isApprovedForAll",
      "outputs": [
        {
          "internalType": "bool",
          "name": "",
          "type": "bool"
        }
      ],
      "stateMutability": "view",
      "type": "function"
    },
    {
      "inputs": [],
      "name": "name",
      "outputs": [
        {
          "internalType": "string",
          "name": "",
          "type": "string"
        }
      ],
      "stateMutability": "view",
      "type": "function"
    },
    {
      "inputs": [
        {
          "internalType": "uint256",
          "name": "tokenId",
          "type": "uint256"
        }
      ],
      "name": "ownerOf",
      "outputs": [
        {
          "internalType": "address",
          "name": "",
          "type": "address"
        }
      ],
      "stateMutability": "view",
      "type": "function"
    },
    {
      "inputs": [
        {
          "internalType": "bytes32",
          "name": "role",
          "type": "bytes32"
        },
        {
          "internalType": "address",
          "name": "account",
          "type": "address"
        }
      ],
      "name": "renounceRole",
      "outputs": [],
      "stateMutability": "nonpayable",
      "type": "function"
    },
    {
      "inputs": [
        {
          "internalType": "bytes32",
          "name": "role",
          "type": "bytes32"
        },
        {
          "internalType": "address",
          "name": "account",
          "type": "address"
        }
      ],
      "name": "revokeRole",
      "outputs": [],
      "stateMutability": "nonpayable",
      "type": "function"
    },
    {
      "inputs": [
        {
          "internalType": "address",
          "name": "to",
          "type": "address"
        },
        {
          "internalType": "uint256",
          "name": "tokenId",
          "type": "uint256"
        }
      ],
      "name": "safeMint",
      "outputs": [],
      "stateMutability": "nonpayable",
      "type": "function"
    },
    {
      "inputs": [
        {
          "internalType": "address",
          "name": "from",
          "type": "address"
        },
        {
          "internalType": "address",
          "name": "to",
          "type": "address"
        },
        {
          "internalType": "uint256",
          "name": "tokenId",
          "type": "uint256"
        }
      ],
      "name": "safeTransferFrom",
      "outputs": [],
      "stateMutability": "nonpayable",
      "type": "function"
    },
    {
      "inputs": [
        {
          "internalType": "address",
          "name": "from",
          "type": "address"
        },
        {
          "internalType": "address",
          "name": "to",
          "type": "address"
        },
        {
          "internalType": "uint256",
          "name": "tokenId",
          "type": "uint256"
        },
        {
          "internalType": "bytes",
          "name": "_data",
          "type": "bytes"
        }
      ],
      "name": "safeTransferFrom",
      "outputs": [],
      "stateMutability": "nonpayable",
      "type": "function"
    },
    {
      "inputs": [
        {
          "internalType": "address",
          "name": "operator",
          "type": "address"
        },
        {
          "internalType": "bool",
          "name": "approved",
          "type": "bool"
        }
      ],
      "name": "setApprovalForAll",
      "outputs": [],
      "stateMutability": "nonpayable",
      "type": "function"
    },
    {
      "inputs": [
        {
          "internalType": "string",
          "name": "baseURI_",
          "type": "string"
        }
      ],
      "name": "setBaseURI",
      "outputs": [],
      "stateMutability": "nonpayable",
      "type": "function"
    },
    {
      "inputs": [
        {
          "internalType": "bytes4",
          "name": "interfaceId",
          "type": "bytes4"
        }
      ],
      "name": "supportsInterface",
      "outputs": [
        {
          "internalType": "bool",
          "name": "",
          "type": "bool"
        }
      ],
      "stateMutability": "view",
      "type": "function"
    },
    {
      "inputs": [],
      "name": "symbol",
      "outputs": [
        {
          "internalType": "string",
          "name": "",
          "type": "string"
        }
      ],
      "stateMutability": "view",
      "type": "function"
    },
    {
      "inputs": [
        {
          "internalType": "uint256",
          "name": "index",
          "type": "uint256"
        }
      ],
      "name": "tokenByIndex",
      "outputs": [
        {
          "internalType": "uint256",
          "name": "",
          "type": "uint256"
        }
      ],
      "stateMutability": "view",
      "type": "function"
    },
    {
      "inputs": [
        {
          "internalType": "address",
          "name": "owner",
          "type": "address"
        },
        {
          "internalType": "uint256",
          "name": "index",
          "type": "uint256"
        }
      ],
      "name": "tokenOfOwnerByIndex",
      "outputs": [
        {
          "internalType": "uint256",
          "name": "",
          "type": "uint256"
        }
      ],
      "stateMutability": "view",
      "type": "function"
    },
    {
      "inputs": [
        {
          "internalType": "uint256",
          "name": "tokenId",
          "type": "uint256"
        }
      ],
      "name": "tokenURI",
      "outputs": [
        {
          "internalType": "string",
          "name": "",
          "type": "string"
        }
      ],
      "stateMutability": "view",
      "type": "function"
    },
    {
      "inputs": [],
      "name": "totalSupply",
      "outputs": [
        {
          "internalType": "uint256",
          "name": "",
          "type": "uint256"
        }
      ],
      "stateMutability": "view",
      "type": "function"
    },
    {
      "inputs": [
        {
          "internalType": "address",
          "name": "from",
          "type": "address"
        },
        {
          "internalType": "address",
          "name": "to",
          "type": "address"
        },
        {
          "internalType": "uint256",
          "name": "tokenId",
          "type": "uint256"
        }
      ],
      "name": "transferFrom",
      "outputs": [],
      "stateMutability": "nonpayable",
      "type": "function"
    }
  ],
  "bytecode": "0x60806040526040518060800160405280605081526020016200416d60509139600b90805190602001906200003592919062000296565b503480156200004357600080fd5b506040518060400160405280600681526020017f33444974656d00000000000000000000000000000000000000000000000000008152506040518060400160405280600281526020017f33440000000000000000000000000000000000000000000000000000000000008152508160009080519060200190620000c892919062000296565b508060019080519060200190620000e192919062000296565b505050620000f96000801b336200013160201b60201c565b6200012b7f9f2df0fed2c77648de5860a4cc508cd0818c85b8b8a1ab4ceeef8d981c8956a6336200013160201b60201c565b620003ab565b6200014382826200022360201b60201c565b6200021f576001600a600084815260200190815260200160002060000160008373ffffffffffffffffffffffffffffffffffffffff1673ffffffffffffffffffffffffffffffffffffffff16815260200190815260200160002060006101000a81548160ff021916908315150217905550620001c46200028e60201b60201c565b73ffffffffffffffffffffffffffffffffffffffff168173ffffffffffffffffffffffffffffffffffffffff16837f2f8788117e7eff1d82e926ec794901d17c78024a50270940304540a733656f0d60405160405180910390a45b5050565b6000600a600084815260200190815260200160002060000160008373ffffffffffffffffffffffffffffffffffffffff1673ffffffffffffffffffffffffffffffffffffffff16815260200190815260200160002060009054906101000a900460ff16905092915050565b600033905090565b828054620002a49062000346565b90600052602060002090601f016020900481019282620002c8576000855562000314565b82601f10620002e357805160ff191683800117855562000314565b8280016001018555821562000314579182015b8281111562000313578251825591602001919060010190620002f6565b5b50905062000323919062000327565b5090565b5b808211156200034257600081600090555060010162000328565b5090565b600060028204905060018216806200035f57607f821691505b602082108114156200037657620003756200037c565b5b50919050565b7f4e487b7100000000000000000000000000000000000000000000000000000000600052602260045260246000fd5b613db280620003bb6000396000f3fe608060405234801561001057600080fd5b50600436106101735760003560e01c806355f804b3116100de578063a217fddf11610097578063c87b56dd11610071578063c87b56dd1461046c578063d53913931461049c578063d547741f146104ba578063e985e9c5146104d657610173565b8063a217fddf14610416578063a22cb46514610434578063b88d4fde1461045057610173565b806355f804b3146103305780636352211e1461034c57806370a082311461037c57806391d14854146103ac57806395d89b41146103dc578063a1448194146103fa57610173565b8063248a9ca311610130578063248a9ca31461024c5780632f2ff15d1461027c5780632f745c591461029857806336568abe146102c857806342842e0e146102e45780634f6ccce71461030057610173565b806301ffc9a71461017857806306fdde03146101a8578063081812fc146101c6578063095ea7b3146101f657806318160ddd1461021257806323b872dd14610230575b600080fd5b610192600480360381019061018d9190612b7f565b610506565b60405161019f919061309b565b60405180910390f35b6101b0610518565b6040516101bd91906130d1565b60405180910390f35b6101e060048036038101906101db9190612c12565b6105aa565b6040516101ed9190613034565b60405180910390f35b610210600480360381019061020b9190612ade565b61062f565b005b61021a610747565b6040516102279190613333565b60405180910390f35b61024a600480360381019061024591906129d8565b610754565b005b61026660048036038101906102619190612b1a565b6107b4565b60405161027391906130b6565b60405180910390f35b61029660048036038101906102919190612b43565b6107d4565b005b6102b260048036038101906102ad9190612ade565b6107fd565b6040516102bf9190613333565b60405180910390f35b6102e260048036038101906102dd9190612b43565b6108a2565b005b6102fe60048036038101906102f991906129d8565b610925565b005b61031a60048036038101906103159190612c12565b610945565b6040516103279190613333565b60405180910390f35b61034a60048036038101906103459190612bd1565b6109dc565b005b61036660048036038101906103619190612c12565b610a0c565b6040516103739190613034565b60405180910390f35b61039660048036038101906103919190612973565b610abe565b6040516103a39190613333565b60405180910390f35b6103c660048036038101906103c19190612b43565b610b76565b6040516103d3919061309b565b60405180910390f35b6103e4610be1565b6040516103f191906130d1565b60405180910390f35b610414600480360381019061040f9190612ade565b610c73565b005b61041e610cb4565b60405161042b91906130b6565b60405180910390f35b61044e60048036038101906104499190612aa2565b610cbb565b005b61046a60048036038101906104659190612a27565b610cd1565b005b61048660048036038101906104819190612c12565b610d33565b60405161049391906130d1565b60405180910390f35b6104a4610dda565b6040516104b191906130b6565b60405180910390f35b6104d460048036038101906104cf9190612b43565b610dfe565b005b6104f060048036038101906104eb919061299c565b610e27565b6040516104fd919061309b565b60405180910390f35b600061051182610ebb565b9050919050565b60606000805461052790613617565b80601f016020809104026020016040519081016040528092919081815260200182805461055390613617565b80156105a05780601f10610575576101008083540402835291602001916105a0565b820191906000526020600020905b81548152906001019060200180831161058357829003601f168201915b5050505050905090565b60006105b582610f35565b6105f4576040517f08c379a00000000000000000000000000000000000000000000000000000000081526004016105eb90613273565b60405180910390fd5b6004600083815260200190815260200160002060009054906101000a900473ffffffffffffffffffffffffffffffffffffffff169050919050565b600061063a82610a0c565b90508073ffffffffffffffffffffffffffffffffffffffff168373ffffffffffffffffffffffffffffffffffffffff1614156106ab576040517f08c379a00000000000000000000000000000000000000000000000000000000081526004016106a2906132b3565b60405180910390fd5b8073ffffffffffffffffffffffffffffffffffffffff166106ca610fa1565b73ffffffffffffffffffffffffffffffffffffffff1614806106f957506106f8816106f3610fa1565b610e27565b5b610738576040517f08c379a000000000000000000000000000000000000000000000000000000000815260040161072f906131f3565b60405180910390fd5b6107428383610fa9565b505050565b6000600880549050905090565b61076561075f610fa1565b82611062565b6107a4576040517f08c379a000000000000000000000000000000000000000000000000000000000815260040161079b906132d3565b60405180910390fd5b6107af838383611140565b505050565b6000600a6000838152602001908152602001600020600101549050919050565b6107dd826107b4565b6107ee816107e9610fa1565b6113a7565b6107f88383611444565b505050565b600061080883610abe565b8210610849576040517f08c379a000000000000000000000000000000000000000000000000000000000815260040161084090613113565b60405180910390fd5b600660008473ffffffffffffffffffffffffffffffffffffffff1673ffffffffffffffffffffffffffffffffffffffff168152602001908152602001600020600083815260200190815260200160002054905092915050565b6108aa610fa1565b73ffffffffffffffffffffffffffffffffffffffff168173ffffffffffffffffffffffffffffffffffffffff1614610917576040517f08c379a000000000000000000000000000000000000000000000000000000000815260040161090e90613313565b60405180910390fd5b6109218282611525565b5050565b61094083838360405180602001604052806000815250610cd1565b505050565b600061094f610747565b8210610990576040517f08c379a0000000000000000000000000000000000000000000000000000000008152600401610987906132f3565b60405180910390fd5b600882815481106109ca577f4e487b7100000000000000000000000000000000000000000000000000000000600052603260045260246000fd5b90600052602060002001549050919050565b6000801b6109f1816109ec610fa1565b6113a7565b81600b9080519060200190610a07929190612782565b505050565b6000806002600084815260200190815260200160002060009054906101000a900473ffffffffffffffffffffffffffffffffffffffff169050600073ffffffffffffffffffffffffffffffffffffffff168173ffffffffffffffffffffffffffffffffffffffff161415610ab5576040517f08c379a0000000000000000000000000000000000000000000000000000000008152600401610aac90613233565b60405180910390fd5b80915050919050565b60008073ffffffffffffffffffffffffffffffffffffffff168273ffffffffffffffffffffffffffffffffffffffff161415610b2f576040517f08c379a0000000000000000000000000000000000000000000000000000000008152600401610b2690613213565b60405180910390fd5b600360008373ffffffffffffffffffffffffffffffffffffffff1673ffffffffffffffffffffffffffffffffffffffff168152602001908152602001600020549050919050565b6000600a600084815260200190815260200160002060000160008373ffffffffffffffffffffffffffffffffffffffff1673ffffffffffffffffffffffffffffffffffffffff16815260200190815260200160002060009054906101000a900460ff16905092915050565b606060018054610bf090613617565b80601f0160208091040260200160405190810160405280929190818152602001828054610c1c90613617565b8015610c695780601f10610c3e57610100808354040283529160200191610c69565b820191906000526020600020905b815481529060010190602001808311610c4c57829003601f168201915b5050505050905090565b7f9f2df0fed2c77648de5860a4cc508cd0818c85b8b8a1ab4ceeef8d981c8956a6610ca581610ca0610fa1565b6113a7565b610caf8383611607565b505050565b6000801b81565b610ccd610cc6610fa1565b8383611625565b5050565b610ce2610cdc610fa1565b83611062565b610d21576040517f08c379a0000000000000000000000000000000000000000000000000000000008152600401610d18906132d3565b60405180910390fd5b610d2d84848484611792565b50505050565b6060610d3e82610f35565b610d7d576040517f08c379a0000000000000000000000000000000000000000000000000000000008152600401610d7490613293565b60405180910390fd5b6000610d876117ee565b90506000815111610da75760405180602001604052806000815250610dd2565b80610db184611880565b604051602001610dc2929190612fd6565b6040516020818303038152906040525b915050919050565b7f9f2df0fed2c77648de5860a4cc508cd0818c85b8b8a1ab4ceeef8d981c8956a681565b610e07826107b4565b610e1881610e13610fa1565b6113a7565b610e228383611525565b505050565b6000600560008473ffffffffffffffffffffffffffffffffffffffff1673ffffffffffffffffffffffffffffffffffffffff16815260200190815260200160002060008373ffffffffffffffffffffffffffffffffffffffff1673ffffffffffffffffffffffffffffffffffffffff16815260200190815260200160002060009054906101000a900460ff16905092915050565b60007f7965db0b000000000000000000000000000000000000000000000000000000007bffffffffffffffffffffffffffffffffffffffffffffffffffffffff1916827bffffffffffffffffffffffffffffffffffffffffffffffffffffffff19161480610f2e5750610f2d82611a2d565b5b9050919050565b60008073ffffffffffffffffffffffffffffffffffffffff166002600084815260200190815260200160002060009054906101000a900473ffffffffffffffffffffffffffffffffffffffff1673ffffffffffffffffffffffffffffffffffffffff1614159050919050565b600033905090565b816004600083815260200190815260200160002060006101000a81548173ffffffffffffffffffffffffffffffffffffffff021916908373ffffffffffffffffffffffffffffffffffffffff160217905550808273ffffffffffffffffffffffffffffffffffffffff1661101c83610a0c565b73ffffffffffffffffffffffffffffffffffffffff167f8c5be1e5ebec7d5bd14f71427d1e84f3dd0314c0f7b2291e5b200ac8c7c3b92560405160405180910390a45050565b600061106d82610f35565b6110ac576040517f08c379a00000000000000000000000000000000000000000000000000000000081526004016110a3906131d3565b60405180910390fd5b60006110b783610a0c565b90508073ffffffffffffffffffffffffffffffffffffffff168473ffffffffffffffffffffffffffffffffffffffff16148061112657508373ffffffffffffffffffffffffffffffffffffffff1661110e846105aa565b73ffffffffffffffffffffffffffffffffffffffff16145b8061113757506111368185610e27565b5b91505092915050565b8273ffffffffffffffffffffffffffffffffffffffff1661116082610a0c565b73ffffffffffffffffffffffffffffffffffffffff16146111b6576040517f08c379a00000000000000000000000000000000000000000000000000000000081526004016111ad90613153565b60405180910390fd5b600073ffffffffffffffffffffffffffffffffffffffff168273ffffffffffffffffffffffffffffffffffffffff161415611226576040517f08c379a000000000000000000000000000000000000000000000000000000000815260040161121d90613193565b60405180910390fd5b611231838383611aa7565b61123c600082610fa9565b6001600360008573ffffffffffffffffffffffffffffffffffffffff1673ffffffffffffffffffffffffffffffffffffffff168152602001908152602001600020600082825461128c91906134f9565b925050819055506001600360008473ffffffffffffffffffffffffffffffffffffffff1673ffffffffffffffffffffffffffffffffffffffff16815260200190815260200160002060008282546112e39190613418565b92505081905550816002600083815260200190815260200160002060006101000a81548173ffffffffffffffffffffffffffffffffffffffff021916908373ffffffffffffffffffffffffffffffffffffffff160217905550808273ffffffffffffffffffffffffffffffffffffffff168473ffffffffffffffffffffffffffffffffffffffff167fddf252ad1be2c89b69c2b068fc378daa952ba7f163c4a11628f55a4df523b3ef60405160405180910390a46113a2838383611ab7565b505050565b6113b18282610b76565b611440576113d68173ffffffffffffffffffffffffffffffffffffffff166014611abc565b6113e48360001c6020611abc565b6040516020016113f5929190612ffa565b6040516020818303038152906040526040517f08c379a000000000000000000000000000000000000000000000000000000000815260040161143791906130d1565b60405180910390fd5b5050565b61144e8282610b76565b611521576001600a600084815260200190815260200160002060000160008373ffffffffffffffffffffffffffffffffffffffff1673ffffffffffffffffffffffffffffffffffffffff16815260200190815260200160002060006101000a81548160ff0219169083151502179055506114c6610fa1565b73ffffffffffffffffffffffffffffffffffffffff168173ffffffffffffffffffffffffffffffffffffffff16837f2f8788117e7eff1d82e926ec794901d17c78024a50270940304540a733656f0d60405160405180910390a45b5050565b61152f8282610b76565b15611603576000600a600084815260200190815260200160002060000160008373ffffffffffffffffffffffffffffffffffffffff1673ffffffffffffffffffffffffffffffffffffffff16815260200190815260200160002060006101000a81548160ff0219169083151502179055506115a8610fa1565b73ffffffffffffffffffffffffffffffffffffffff168173ffffffffffffffffffffffffffffffffffffffff16837ff6391f5c32d9c69d2a47ea670b442974b53935d1edc7fd64eb21e047a839171b60405160405180910390a45b5050565b611621828260405180602001604052806000815250611db6565b5050565b8173ffffffffffffffffffffffffffffffffffffffff168373ffffffffffffffffffffffffffffffffffffffff161415611694576040517f08c379a000000000000000000000000000000000000000000000000000000000815260040161168b906131b3565b60405180910390fd5b80600560008573ffffffffffffffffffffffffffffffffffffffff1673ffffffffffffffffffffffffffffffffffffffff16815260200190815260200160002060008473ffffffffffffffffffffffffffffffffffffffff1673ffffffffffffffffffffffffffffffffffffffff16815260200190815260200160002060006101000a81548160ff0219169083151502179055508173ffffffffffffffffffffffffffffffffffffffff168373ffffffffffffffffffffffffffffffffffffffff167f17307eab39ab6107e8899845ad3d59bd9653f200f220920489ca2b5937696c3183604051611785919061309b565b60405180910390a3505050565b61179d848484611140565b6117a984848484611e11565b6117e8576040517f08c379a00000000000000000000000000000000000000000000000000000000081526004016117df90613133565b60405180910390fd5b50505050565b6060600b80546117fd90613617565b80601f016020809104026020016040519081016040528092919081815260200182805461182990613617565b80156118765780601f1061184b57610100808354040283529160200191611876565b820191906000526020600020905b81548152906001019060200180831161185957829003601f168201915b5050505050905090565b606060008214156118c8576040518060400160405280600181526020017f30000000000000000000000000000000000000000000000000000000000000008152509050611a28565b600082905060005b600082146118fa5780806118e39061367a565b915050600a826118f3919061346e565b91506118d0565b60008167ffffffffffffffff81111561193c577f4e487b7100000000000000000000000000000000000000000000000000000000600052604160045260246000fd5b6040519080825280601f01601f19166020018201604052801561196e5781602001600182028036833780820191505090505b5090505b60008514611a215760018261198791906134f9565b9150600a8561199691906136c3565b60306119a29190613418565b60f81b8183815181106119de577f4e487b7100000000000000000000000000000000000000000000000000000000600052603260045260246000fd5b60200101907effffffffffffffffffffffffffffffffffffffffffffffffffffffffffffff1916908160001a905350600a85611a1a919061346e565b9450611972565b8093505050505b919050565b60007f780e9d63000000000000000000000000000000000000000000000000000000007bffffffffffffffffffffffffffffffffffffffffffffffffffffffff1916827bffffffffffffffffffffffffffffffffffffffffffffffffffffffff19161480611aa05750611a9f82611fa8565b5b9050919050565b611ab283838361208a565b505050565b505050565b606060006002836002611acf919061349f565b611ad99190613418565b67ffffffffffffffff811115611b18577f4e487b7100000000000000000000000000000000000000000000000000000000600052604160045260246000fd5b6040519080825280601f01601f191660200182016040528015611b4a5781602001600182028036833780820191505090505b5090507f300000000000000000000000000000000000000000000000000000000000000081600081518110611ba8577f4e487b7100000000000000000000000000000000000000000000000000000000600052603260045260246000fd5b60200101907effffffffffffffffffffffffffffffffffffffffffffffffffffffffffffff1916908160001a9053507f780000000000000000000000000000000000000000000000000000000000000081600181518110611c32577f4e487b7100000000000000000000000000000000000000000000000000000000600052603260045260246000fd5b60200101907effffffffffffffffffffffffffffffffffffffffffffffffffffffffffffff1916908160001a90535060006001846002611c72919061349f565b611c7c9190613418565b90505b6001811115611d68577f3031323334353637383961626364656600000000000000000000000000000000600f861660108110611ce4577f4e487b7100000000000000000000000000000000000000000000000000000000600052603260045260246000fd5b1a60f81b828281518110611d21577f4e487b7100000000000000000000000000000000000000000000000000000000600052603260045260246000fd5b60200101907effffffffffffffffffffffffffffffffffffffffffffffffffffffffffffff1916908160001a905350600485901c945080611d61906135ed565b9050611c7f565b5060008414611dac576040517f08c379a0000000000000000000000000000000000000000000000000000000008152600401611da3906130f3565b60405180910390fd5b8091505092915050565b611dc0838361219e565b611dcd6000848484611e11565b611e0c576040517f08c379a0000000000000000000000000000000000000000000000000000000008152600401611e0390613133565b60405180910390fd5b505050565b6000611e328473ffffffffffffffffffffffffffffffffffffffff16612378565b15611f9b578373ffffffffffffffffffffffffffffffffffffffff1663150b7a02611e5b610fa1565b8786866040518563ffffffff1660e01b8152600401611e7d949392919061304f565b602060405180830381600087803b158015611e9757600080fd5b505af1925050508015611ec857506040513d601f19601f82011682018060405250810190611ec59190612ba8565b60015b611f4b573d8060008114611ef8576040519150601f19603f3d011682016040523d82523d6000602084013e611efd565b606091505b50600081511415611f43576040517f08c379a0000000000000000000000000000000000000000000000000000000008152600401611f3a90613133565b60405180910390fd5b805181602001fd5b63150b7a0260e01b7bffffffffffffffffffffffffffffffffffffffffffffffffffffffff1916817bffffffffffffffffffffffffffffffffffffffffffffffffffffffff191614915050611fa0565b600190505b949350505050565b60007f80ac58cd000000000000000000000000000000000000000000000000000000007bffffffffffffffffffffffffffffffffffffffffffffffffffffffff1916827bffffffffffffffffffffffffffffffffffffffffffffffffffffffff1916148061207357507f5b5e139f000000000000000000000000000000000000000000000000000000007bffffffffffffffffffffffffffffffffffffffffffffffffffffffff1916827bffffffffffffffffffffffffffffffffffffffffffffffffffffffff1916145b8061208357506120828261239b565b5b9050919050565b612095838383612405565b600073ffffffffffffffffffffffffffffffffffffffff168373ffffffffffffffffffffffffffffffffffffffff1614156120d8576120d38161240a565b612117565b8173ffffffffffffffffffffffffffffffffffffffff168373ffffffffffffffffffffffffffffffffffffffff1614612116576121158382612453565b5b5b600073ffffffffffffffffffffffffffffffffffffffff168273ffffffffffffffffffffffffffffffffffffffff16141561215a57612155816125c0565b612199565b8273ffffffffffffffffffffffffffffffffffffffff168273ffffffffffffffffffffffffffffffffffffffff1614612198576121978282612703565b5b5b505050565b600073ffffffffffffffffffffffffffffffffffffffff168273ffffffffffffffffffffffffffffffffffffffff16141561220e576040517f08c379a000000000000000000000000000000000000000000000000000000000815260040161220590613253565b60405180910390fd5b61221781610f35565b15612257576040517f08c379a000000000000000000000000000000000000000000000000000000000815260040161224e90613173565b60405180910390fd5b61226360008383611aa7565b6001600360008473ffffffffffffffffffffffffffffffffffffffff1673ffffffffffffffffffffffffffffffffffffffff16815260200190815260200160002060008282546122b39190613418565b92505081905550816002600083815260200190815260200160002060006101000a81548173ffffffffffffffffffffffffffffffffffffffff021916908373ffffffffffffffffffffffffffffffffffffffff160217905550808273ffffffffffffffffffffffffffffffffffffffff16600073ffffffffffffffffffffffffffffffffffffffff167fddf252ad1be2c89b69c2b068fc378daa952ba7f163c4a11628f55a4df523b3ef60405160405180910390a461237460008383611ab7565b5050565b6000808273ffffffffffffffffffffffffffffffffffffffff163b119050919050565b60007f01ffc9a7000000000000000000000000000000000000000000000000000000007bffffffffffffffffffffffffffffffffffffffffffffffffffffffff1916827bffffffffffffffffffffffffffffffffffffffffffffffffffffffff1916149050919050565b505050565b6008805490506009600083815260200190815260200160002081905550600881908060018154018082558091505060019003906000526020600020016000909190919091505550565b6000600161246084610abe565b61246a91906134f9565b905060006007600084815260200190815260200160002054905081811461254f576000600660008673ffffffffffffffffffffffffffffffffffffffff1673ffffffffffffffffffffffffffffffffffffffff168152602001908152602001600020600084815260200190815260200160002054905080600660008773ffffffffffffffffffffffffffffffffffffffff1673ffffffffffffffffffffffffffffffffffffffff168152602001908152602001600020600084815260200190815260200160002081905550816007600083815260200190815260200160002081905550505b6007600084815260200190815260200160002060009055600660008573ffffffffffffffffffffffffffffffffffffffff1673ffffffffffffffffffffffffffffffffffffffff16815260200190815260200160002060008381526020019081526020016000206000905550505050565b600060016008805490506125d491906134f9565b905060006009600084815260200190815260200160002054905060006008838154811061262a577f4e487b7100000000000000000000000000000000000000000000000000000000600052603260045260246000fd5b906000526020600020015490508060088381548110612672577f4e487b7100000000000000000000000000000000000000000000000000000000600052603260045260246000fd5b9060005260206000200181905550816009600083815260200190815260200160002081905550600960008581526020019081526020016000206000905560088054806126e7577f4e487b7100000000000000000000000000000000000000000000000000000000600052603160045260246000fd5b6001900381819060005260206000200160009055905550505050565b600061270e83610abe565b905081600660008573ffffffffffffffffffffffffffffffffffffffff1673ffffffffffffffffffffffffffffffffffffffff168152602001908152602001600020600083815260200190815260200160002081905550806007600084815260200190815260200160002081905550505050565b82805461278e90613617565b90600052602060002090601f0160209004810192826127b057600085556127f7565b82601f106127c957805160ff19168380011785556127f7565b828001600101855582156127f7579182015b828111156127f65782518255916020019190600101906127db565b5b5090506128049190612808565b5090565b5b80821115612821576000816000905550600101612809565b5090565b600061283861283384613373565b61334e565b90508281526020810184848401111561285057600080fd5b61285b8482856135ab565b509392505050565b6000612876612871846133a4565b61334e565b90508281526020810184848401111561288e57600080fd5b6128998482856135ab565b509392505050565b6000813590506128b081613d09565b92915050565b6000813590506128c581613d20565b92915050565b6000813590506128da81613d37565b92915050565b6000813590506128ef81613d4e565b92915050565b60008151905061290481613d4e565b92915050565b600082601f83011261291b57600080fd5b813561292b848260208601612825565b91505092915050565b600082601f83011261294557600080fd5b8135612955848260208601612863565b91505092915050565b60008135905061296d81613d65565b92915050565b60006020828403121561298557600080fd5b6000612993848285016128a1565b91505092915050565b600080604083850312156129af57600080fd5b60006129bd858286016128a1565b92505060206129ce858286016128a1565b9150509250929050565b6000806000606084860312156129ed57600080fd5b60006129fb868287016128a1565b9350506020612a0c868287016128a1565b9250506040612a1d8682870161295e565b9150509250925092565b60008060008060808587031215612a3d57600080fd5b6000612a4b878288016128a1565b9450506020612a5c878288016128a1565b9350506040612a6d8782880161295e565b925050606085013567ffffffffffffffff811115612a8a57600080fd5b612a968782880161290a565b91505092959194509250565b60008060408385031215612ab557600080fd5b6000612ac3858286016128a1565b9250506020612ad4858286016128b6565b9150509250929050565b60008060408385031215612af157600080fd5b6000612aff858286016128a1565b9250506020612b108582860161295e565b9150509250929050565b600060208284031215612b2c57600080fd5b6000612b3a848285016128cb565b91505092915050565b60008060408385031215612b5657600080fd5b6000612b64858286016128cb565b9250506020612b75858286016128a1565b9150509250929050565b600060208284031215612b9157600080fd5b6000612b9f848285016128e0565b91505092915050565b600060208284031215612bba57600080fd5b6000612bc8848285016128f5565b91505092915050565b600060208284031215612be357600080fd5b600082013567ffffffffffffffff811115612bfd57600080fd5b612c0984828501612934565b91505092915050565b600060208284031215612c2457600080fd5b6000612c328482850161295e565b91505092915050565b612c448161352d565b82525050565b612c538161353f565b82525050565b612c628161354b565b82525050565b6000612c73826133d5565b612c7d81856133eb565b9350612c8d8185602086016135ba565b612c96816137b0565b840191505092915050565b6000612cac826133e0565b612cb681856133fc565b9350612cc68185602086016135ba565b612ccf816137b0565b840191505092915050565b6000612ce5826133e0565b612cef818561340d565b9350612cff8185602086016135ba565b80840191505092915050565b6000612d186020836133fc565b9150612d23826137c1565b602082019050919050565b6000612d3b602b836133fc565b9150612d46826137ea565b604082019050919050565b6000612d5e6032836133fc565b9150612d6982613839565b604082019050919050565b6000612d816025836133fc565b9150612d8c82613888565b604082019050919050565b6000612da4601c836133fc565b9150612daf826138d7565b602082019050919050565b6000612dc76024836133fc565b9150612dd282613900565b604082019050919050565b6000612dea6019836133fc565b9150612df58261394f565b602082019050919050565b6000612e0d602c836133fc565b9150612e1882613978565b604082019050919050565b6000612e306038836133fc565b9150612e3b826139c7565b604082019050919050565b6000612e53602a836133fc565b9150612e5e82613a16565b604082019050919050565b6000612e766029836133fc565b9150612e8182613a65565b604082019050919050565b6000612e996020836133fc565b9150612ea482613ab4565b602082019050919050565b6000612ebc602c836133fc565b9150612ec782613add565b604082019050919050565b6000612edf602f836133fc565b9150612eea82613b2c565b604082019050919050565b6000612f026021836133fc565b9150612f0d82613b7b565b604082019050919050565b6000612f256031836133fc565b9150612f3082613bca565b604082019050919050565b6000612f48602c836133fc565b9150612f5382613c19565b604082019050919050565b6000612f6b60178361340d565b9150612f7682613c68565b601782019050919050565b6000612f8e60118361340d565b9150612f9982613c91565b601182019050919050565b6000612fb1602f836133fc565b9150612fbc82613cba565b604082019050919050565b612fd0816135a1565b82525050565b6000612fe28285612cda565b9150612fee8284612cda565b91508190509392505050565b600061300582612f5e565b91506130118285612cda565b915061301c82612f81565b91506130288284612cda565b91508190509392505050565b60006020820190506130496000830184612c3b565b92915050565b60006080820190506130646000830187612c3b565b6130716020830186612c3b565b61307e6040830185612fc7565b81810360608301526130908184612c68565b905095945050505050565b60006020820190506130b06000830184612c4a565b92915050565b60006020820190506130cb6000830184612c59565b92915050565b600060208201905081810360008301526130eb8184612ca1565b905092915050565b6000602082019050818103600083015261310c81612d0b565b9050919050565b6000602082019050818103600083015261312c81612d2e565b9050919050565b6000602082019050818103600083015261314c81612d51565b9050919050565b6000602082019050818103600083015261316c81612d74565b9050919050565b6000602082019050818103600083015261318c81612d97565b9050919050565b600060208201905081810360008301526131ac81612dba565b9050919050565b600060208201905081810360008301526131cc81612ddd565b9050919050565b600060208201905081810360008301526131ec81612e00565b9050919050565b6000602082019050818103600083015261320c81612e23565b9050919050565b6000602082019050818103600083015261322c81612e46565b9050919050565b6000602082019050818103600083015261324c81612e69565b9050919050565b6000602082019050818103600083015261326c81612e8c565b9050919050565b6000602082019050818103600083015261328c81612eaf565b9050919050565b600060208201905081810360008301526132ac81612ed2565b9050919050565b600060208201905081810360008301526132cc81612ef5565b9050919050565b600060208201905081810360008301526132ec81612f18565b9050919050565b6000602082019050818103600083015261330c81612f3b565b9050919050565b6000602082019050818103600083015261332c81612fa4565b9050919050565b60006020820190506133486000830184612fc7565b92915050565b6000613358613369565b90506133648282613649565b919050565b6000604051905090565b600067ffffffffffffffff82111561338e5761338d613781565b5b613397826137b0565b9050602081019050919050565b600067ffffffffffffffff8211156133bf576133be613781565b5b6133c8826137b0565b9050602081019050919050565b600081519050919050565b600081519050919050565b600082825260208201905092915050565b600082825260208201905092915050565b600081905092915050565b6000613423826135a1565b915061342e836135a1565b9250827fffffffffffffffffffffffffffffffffffffffffffffffffffffffffffffffff03821115613463576134626136f4565b5b828201905092915050565b6000613479826135a1565b9150613484836135a1565b92508261349457613493613723565b5b828204905092915050565b60006134aa826135a1565b91506134b5836135a1565b9250817fffffffffffffffffffffffffffffffffffffffffffffffffffffffffffffffff04831182151516156134ee576134ed6136f4565b5b828202905092915050565b6000613504826135a1565b915061350f836135a1565b925082821015613522576135216136f4565b5b828203905092915050565b600061353882613581565b9050919050565b60008115159050919050565b6000819050919050565b60007fffffffff0000000000000000000000000000000000000000000000000000000082169050919050565b600073ffffffffffffffffffffffffffffffffffffffff82169050919050565b6000819050919050565b82818337600083830152505050565b60005b838110156135d85780820151818401526020810190506135bd565b838111156135e7576000848401525b50505050565b60006135f8826135a1565b9150600082141561360c5761360b6136f4565b5b600182039050919050565b6000600282049050600182168061362f57607f821691505b6020821081141561364357613642613752565b5b50919050565b613652826137b0565b810181811067ffffffffffffffff8211171561367157613670613781565b5b80604052505050565b6000613685826135a1565b91507fffffffffffffffffffffffffffffffffffffffffffffffffffffffffffffffff8214156136b8576136b76136f4565b5b600182019050919050565b60006136ce826135a1565b91506136d9836135a1565b9250826136e9576136e8613723565b5b828206905092915050565b7f4e487b7100000000000000000000000000000000000000000000000000000000600052601160045260246000fd5b7f4e487b7100000000000000000000000000000000000000000000000000000000600052601260045260246000fd5b7f4e487b7100000000000000000000000000000000000000000000000000000000600052602260045260246000fd5b7f4e487b7100000000000000000000000000000000000000000000000000000000600052604160045260246000fd5b6000601f19601f8301169050919050565b7f537472696e67733a20686578206c656e67746820696e73756666696369656e74600082015250565b7f455243373231456e756d657261626c653a206f776e657220696e646578206f7560008201527f74206f6620626f756e6473000000000000000000000000000000000000000000602082015250565b7f4552433732313a207472616e7366657220746f206e6f6e20455243373231526560008201527f63656976657220696d706c656d656e7465720000000000000000000000000000602082015250565b7f4552433732313a207472616e736665722066726f6d20696e636f72726563742060008201527f6f776e6572000000000000000000000000000000000000000000000000000000602082015250565b7f4552433732313a20746f6b656e20616c7265616479206d696e74656400000000600082015250565b7f4552433732313a207472616e7366657220746f20746865207a65726f2061646460008201527f7265737300000000000000000000000000000000000000000000000000000000602082015250565b7f4552433732313a20617070726f766520746f2063616c6c657200000000000000600082015250565b7f4552433732313a206f70657261746f7220717565727920666f72206e6f6e657860008201527f697374656e7420746f6b656e0000000000000000000000000000000000000000602082015250565b7f4552433732313a20617070726f76652063616c6c6572206973206e6f74206f7760008201527f6e6572206e6f7220617070726f76656420666f7220616c6c0000000000000000602082015250565b7f4552433732313a2062616c616e636520717565727920666f7220746865207a6560008201527f726f206164647265737300000000000000000000000000000000000000000000602082015250565b7f4552433732313a206f776e657220717565727920666f72206e6f6e657869737460008201527f656e7420746f6b656e0000000000000000000000000000000000000000000000602082015250565b7f4552433732313a206d696e7420746f20746865207a65726f2061646472657373600082015250565b7f4552433732313a20617070726f76656420717565727920666f72206e6f6e657860008201527f697374656e7420746f6b656e0000000000000000000000000000000000000000602082015250565b7f4552433732314d657461646174613a2055524920717565727920666f72206e6f60008201527f6e6578697374656e7420746f6b656e0000000000000000000000000000000000602082015250565b7f4552433732313a20617070726f76616c20746f2063757272656e74206f776e6560008201527f7200000000000000000000000000000000000000000000000000000000000000602082015250565b7f4552433732313a207472616e736665722063616c6c6572206973206e6f74206f60008201527f776e6572206e6f7220617070726f766564000000000000000000000000000000602082015250565b7f455243373231456e756d657261626c653a20676c6f62616c20696e646578206f60008201527f7574206f6620626f756e64730000000000000000000000000000000000000000602082015250565b7f416363657373436f6e74726f6c3a206163636f756e7420000000000000000000600082015250565b7f206973206d697373696e6720726f6c6520000000000000000000000000000000600082015250565b7f416363657373436f6e74726f6c3a2063616e206f6e6c792072656e6f756e636560008201527f20726f6c657320666f722073656c660000000000000000000000000000000000602082015250565b613d128161352d565b8114613d1d57600080fd5b50565b613d298161353f565b8114613d3457600080fd5b50565b613d408161354b565b8114613d4b57600080fd5b50565b613d5781613555565b8114613d6257600080fd5b50565b613d6e816135a1565b8114613d7957600080fd5b5056fea2646970667358221220e1ffe28614aea29f5a26f30709092fc69b53952f7f183d578ff2b69f43630a1464736f6c6343000804003368747470733a2f2f7261772e67697468756275736572636f6e74656e742e636f6d2f6d696e746f6e64656d616e642f64657369676e2d636c75622d626574612f6d61696e2f6a736f6e2d66696c65732f",
  "linkReferences": {},
  "deployedLinkReferences": {}
}